{
  "_format": "hh-sol-artifact-1",
  "contractName": "ArtburnproNFT",
  "sourceName": "contracts/ArtburnNFT.sol",
  "abi": [
    {
      "inputs": [],
      "stateMutability": "nonpayable",
      "type": "constructor"
    },
    {
      "anonymous": false,
      "inputs": [
        {
          "indexed": true,
          "internalType": "address",
          "name": "owner",
          "type": "address"
        },
        {
          "indexed": true,
          "internalType": "address",
          "name": "approved",
          "type": "address"
        },
        {
          "indexed": true,
          "internalType": "uint256",
          "name": "tokenId",
          "type": "uint256"
        }
      ],
      "name": "Approval",
      "type": "event"
    },
    {
      "anonymous": false,
      "inputs": [
        {
          "indexed": true,
          "internalType": "address",
          "name": "owner",
          "type": "address"
        },
        {
          "indexed": true,
          "internalType": "address",
          "name": "operator",
          "type": "address"
        },
        {
          "indexed": false,
          "internalType": "bool",
          "name": "approved",
          "type": "bool"
        }
      ],
      "name": "ApprovalForAll",
      "type": "event"
    },
    {
      "anonymous": false,
      "inputs": [
        {
          "indexed": true,
          "internalType": "address",
          "name": "previousOwner",
          "type": "address"
        },
        {
          "indexed": true,
          "internalType": "address",
          "name": "newOwner",
          "type": "address"
        }
      ],
      "name": "OwnershipTransferred",
      "type": "event"
    },
    {
      "anonymous": false,
      "inputs": [
        {
          "indexed": true,
          "internalType": "address",
          "name": "from",
          "type": "address"
        },
        {
          "indexed": true,
          "internalType": "address",
          "name": "to",
          "type": "address"
        },
        {
          "indexed": true,
          "internalType": "uint256",
          "name": "tokenId",
          "type": "uint256"
        }
      ],
      "name": "Transfer",
      "type": "event"
    },
    {
      "inputs": [
        {
          "internalType": "address",
          "name": "to",
          "type": "address"
        },
        {
          "internalType": "uint256",
          "name": "tokenId",
          "type": "uint256"
        }
      ],
      "name": "approve",
      "outputs": [],
      "stateMutability": "nonpayable",
      "type": "function"
    },
    {
      "inputs": [
        {
          "internalType": "address",
          "name": "owner",
          "type": "address"
        }
      ],
      "name": "balanceOf",
      "outputs": [
        {
          "internalType": "uint256",
          "name": "",
          "type": "uint256"
        }
      ],
      "stateMutability": "view",
      "type": "function"
    },
    {
      "inputs": [],
      "name": "baseURI",
      "outputs": [
        {
          "internalType": "string",
          "name": "",
          "type": "string"
        }
      ],
      "stateMutability": "view",
      "type": "function"
    },
    {
      "inputs": [
        {
          "internalType": "uint256",
          "name": "tokenId",
          "type": "uint256"
        }
      ],
      "name": "getApproved",
      "outputs": [
        {
          "internalType": "address",
          "name": "",
          "type": "address"
        }
      ],
      "stateMutability": "view",
      "type": "function"
    },
    {
      "inputs": [
        {
          "internalType": "address",
          "name": "owner",
          "type": "address"
        },
        {
          "internalType": "address",
          "name": "operator",
          "type": "address"
        }
      ],
      "name": "isApprovedForAll",
      "outputs": [
        {
          "internalType": "bool",
          "name": "",
          "type": "bool"
        }
      ],
      "stateMutability": "view",
      "type": "function"
    },
    {
      "inputs": [
        {
          "internalType": "address",
          "name": "to",
          "type": "address"
        },
        {
          "internalType": "string",
          "name": "tokenURI",
          "type": "string"
        }
      ],
      "name": "mintItem",
      "outputs": [
        {
          "internalType": "uint256",
          "name": "",
          "type": "uint256"
        }
      ],
      "stateMutability": "nonpayable",
      "type": "function"
    },
    {
      "inputs": [],
      "name": "name",
      "outputs": [
        {
          "internalType": "string",
          "name": "",
          "type": "string"
        }
      ],
      "stateMutability": "view",
      "type": "function"
    },
    {
      "inputs": [],
      "name": "owner",
      "outputs": [
        {
          "internalType": "address",
          "name": "",
          "type": "address"
        }
      ],
      "stateMutability": "view",
      "type": "function"
    },
    {
      "inputs": [
        {
          "internalType": "uint256",
          "name": "tokenId",
          "type": "uint256"
        }
      ],
      "name": "ownerOf",
      "outputs": [
        {
          "internalType": "address",
          "name": "",
          "type": "address"
        }
      ],
      "stateMutability": "view",
      "type": "function"
    },
    {
      "inputs": [],
      "name": "renounceOwnership",
      "outputs": [],
      "stateMutability": "nonpayable",
      "type": "function"
    },
    {
      "inputs": [
        {
          "internalType": "address",
          "name": "from",
          "type": "address"
        },
        {
          "internalType": "address",
          "name": "to",
          "type": "address"
        },
        {
          "internalType": "uint256",
          "name": "tokenId",
          "type": "uint256"
        }
      ],
      "name": "safeTransferFrom",
      "outputs": [],
      "stateMutability": "nonpayable",
      "type": "function"
    },
    {
      "inputs": [
        {
          "internalType": "address",
          "name": "from",
          "type": "address"
        },
        {
          "internalType": "address",
          "name": "to",
          "type": "address"
        },
        {
          "internalType": "uint256",
          "name": "tokenId",
          "type": "uint256"
        },
        {
          "internalType": "bytes",
          "name": "_data",
          "type": "bytes"
        }
      ],
      "name": "safeTransferFrom",
      "outputs": [],
      "stateMutability": "nonpayable",
      "type": "function"
    },
    {
      "inputs": [
        {
          "internalType": "address",
          "name": "operator",
          "type": "address"
        },
        {
          "internalType": "bool",
          "name": "approved",
          "type": "bool"
        }
      ],
      "name": "setApprovalForAll",
      "outputs": [],
      "stateMutability": "nonpayable",
      "type": "function"
    },
    {
      "inputs": [
        {
          "internalType": "bytes4",
          "name": "interfaceId",
          "type": "bytes4"
        }
      ],
      "name": "supportsInterface",
      "outputs": [
        {
          "internalType": "bool",
          "name": "",
          "type": "bool"
        }
      ],
      "stateMutability": "view",
      "type": "function"
    },
    {
      "inputs": [],
      "name": "symbol",
      "outputs": [
        {
          "internalType": "string",
          "name": "",
          "type": "string"
        }
      ],
      "stateMutability": "view",
      "type": "function"
    },
    {
      "inputs": [
        {
          "internalType": "uint256",
          "name": "index",
          "type": "uint256"
        }
      ],
      "name": "tokenByIndex",
      "outputs": [
        {
          "internalType": "uint256",
          "name": "",
          "type": "uint256"
        }
      ],
      "stateMutability": "view",
      "type": "function"
    },
    {
      "inputs": [
        {
          "internalType": "address",
          "name": "owner",
          "type": "address"
        },
        {
          "internalType": "uint256",
          "name": "index",
          "type": "uint256"
        }
      ],
      "name": "tokenOfOwnerByIndex",
      "outputs": [
        {
          "internalType": "uint256",
          "name": "",
          "type": "uint256"
        }
      ],
      "stateMutability": "view",
      "type": "function"
    },
    {
      "inputs": [
        {
          "internalType": "uint256",
          "name": "tokenId",
          "type": "uint256"
        }
      ],
      "name": "tokenURI",
      "outputs": [
        {
          "internalType": "string",
          "name": "",
          "type": "string"
        }
      ],
      "stateMutability": "view",
      "type": "function"
    },
    {
      "inputs": [],
      "name": "totalSupply",
      "outputs": [
        {
          "internalType": "uint256",
          "name": "",
          "type": "uint256"
        }
      ],
      "stateMutability": "view",
      "type": "function"
    },
    {
      "inputs": [
        {
          "internalType": "address",
          "name": "from",
          "type": "address"
        },
        {
          "internalType": "address",
          "name": "to",
          "type": "address"
        },
        {
          "internalType": "uint256",
          "name": "tokenId",
          "type": "uint256"
        }
      ],
      "name": "transferFrom",
      "outputs": [],
      "stateMutability": "nonpayable",
      "type": "function"
    },
    {
      "inputs": [
        {
          "internalType": "address",
          "name": "newOwner",
          "type": "address"
        }
      ],
      "name": "transferOwnership",
      "outputs": [],
      "stateMutability": "nonpayable",
      "type": "function"
    }
  ],
  "bytecode": "0x60806040523480156200001157600080fd5b50604080518082018252600d81526c105c9d189d5c9b9c1c9bd39195609a1b6020808301919091528251808401909352600883526710509c1c9bd3919560c21b9083015290620000716301ffc9a760e01b6001600160e01b03620001a216565b81516200008690600690602085019062000245565b5080516200009c90600790602084019062000245565b50620000b86380ac58cd60e01b6001600160e01b03620001a216565b620000d3635b5e139f60e01b6001600160e01b03620001a216565b620000ee63780e9d6360e01b6001600160e01b03620001a216565b5060009050620001066001600160e01b036200022716565b600a80546001600160a01b0319166001600160a01b038316908117909155604051919250906000907f8be0079c531659141344cd1fd0a4f28419497f9722a3daafe3b4186f6b6457e0908290a35060408051808201909152601581527f68747470733a2f2f697066732e696f2f697066732f000000000000000000000060208201526200019c906001600160e01b036200022c16565b620002e7565b6001600160e01b0319808216141562000202576040805162461bcd60e51b815260206004820152601c60248201527f4552433136353a20696e76616c696420696e7465726661636520696400000000604482015290519081900360640190fd5b6001600160e01b0319166000908152602081905260409020805460ff19166001179055565b335b90565b80516200024190600990602084019062000245565b5050565b828054600181600116156101000203166002900490600052602060002090601f016020900481019282601f106200028857805160ff1916838001178555620002b8565b82800160010185558215620002b8579182015b82811115620002b85782518255916020019190600101906200029b565b50620002c6929150620002ca565b5090565b6200022991905b80821115620002c65760008155600101620002d1565b611ff380620002f76000396000f3fe608060405234801561001057600080fd5b50600436106101375760003560e01c80636352211e116100b857806395d89b411161007c57806395d89b411461043b578063a22cb46514610443578063b88d4fde14610471578063c87b56dd14610537578063e985e9c514610554578063f2fde38b1461058257610137565b80636352211e146103e05780636c0360eb146103fd57806370a0823114610405578063715018a61461042b5780638da5cb5b1461043357610137565b806318160ddd116100ff57806318160ddd1461032357806323b872dd1461032b5780632f745c591461036157806342842e0e1461038d5780634f6ccce7146103c357610137565b806301ffc9a71461013c57806306fdde0314610177578063081812fc146101f4578063095ea7b31461022d578063110bcd451461025b575b600080fd5b6101636004803603602081101561015257600080fd5b50356001600160e01b0319166105a8565b604080519115158252519081900360200190f35b61017f6105cb565b6040805160208082528351818301528351919283929083019185019080838360005b838110156101b95781810151838201526020016101a1565b50505050905090810190601f1680156101e65780820380516001836020036101000a031916815260200191505b509250505060405180910390f35b6102116004803603602081101561020a57600080fd5b5035610662565b604080516001600160a01b039092168252519081900360200190f35b6102596004803603604081101561024357600080fd5b506001600160a01b0381351690602001356106c4565b005b6103116004803603604081101561027157600080fd5b6001600160a01b03823516919081019060408101602082013564010000000081111561029c57600080fd5b8201836020820111156102ae57600080fd5b803590602001918460018302840111640100000000831117156102d057600080fd5b91908080601f01602080910402602001604051908101604052809392919081815260200183838082843760009201919091525092955061079f945050505050565b60408051918252519081900360200190f35b610311610840565b6102596004803603606081101561034157600080fd5b506001600160a01b03813581169160208101359091169060400135610851565b6103116004803603604081101561037757600080fd5b506001600160a01b0381351690602001356108a8565b610259600480360360608110156103a357600080fd5b506001600160a01b038135811691602081013590911690604001356108d0565b610311600480360360208110156103d957600080fd5b50356108eb565b610211600480360360208110156103f657600080fd5b5035610907565b61017f610935565b6103116004803603602081101561041b57600080fd5b50356001600160a01b0316610996565b6102596109fe565b610211610ab2565b61017f610ac1565b6102596004803603604081101561045957600080fd5b506001600160a01b0381351690602001351515610b22565b6102596004803603608081101561048757600080fd5b6001600160a01b038235811692602081013590911691604082013591908101906080810160608201356401000000008111156104c257600080fd5b8201836020820111156104d457600080fd5b803590602001918460018302840111640100000000831117156104f657600080fd5b91908080601f016020809104026020016040519081016040528093929190818152602001838380828437600092019190915250929550610c27945050505050565b61017f6004803603602081101561054d57600080fd5b5035610c85565b6101636004803603604081101561056a57600080fd5b506001600160a01b0381358116916020013516610f2c565b6102596004803603602081101561059857600080fd5b50356001600160a01b0316610f5a565b6001600160e01b0319811660009081526020819052604090205460ff165b919050565b60068054604080516020601f60026000196101006001881615020190951694909404938401819004810282018101909252828152606093909290918301828280156106575780601f1061062c57610100808354040283529160200191610657565b820191906000526020600020905b81548152906001019060200180831161063a57829003601f168201915b505050505090505b90565b600061066d82611065565b6106a85760405162461bcd60e51b815260040180806020018281038252602c815260200180611ebc602c913960400191505060405180910390fd5b506000908152600460205260409020546001600160a01b031690565b60006106cf82610907565b9050806001600160a01b0316836001600160a01b031614156107225760405162461bcd60e51b8152600401808060200182810382526021815260200180611f6c6021913960400191505060405180910390fd5b806001600160a01b0316610734611078565b6001600160a01b03161480610755575061075581610750611078565b610f2c565b6107905760405162461bcd60e51b8152600401808060200182810382526038815260200180611e0f6038913960400191505060405180910390fd5b61079a838361107c565b505050565b60006107a9611078565b600a546001600160a01b0390811691161461080b576040805162461bcd60e51b815260206004820181905260248201527f4f776e61626c653a2063616c6c6572206973206e6f7420746865206f776e6572604482015290519081900360640190fd5b610815600b6110ea565b6000610821600b6110f3565b905061082d84826110f7565b6108378184611231565b90505b92915050565b600061084c6002611294565b905090565b61086261085c611078565b8261129f565b61089d5760405162461bcd60e51b8152600401808060200182810382526031815260200180611f8d6031913960400191505060405180910390fd5b61079a838383611343565b6001600160a01b0382166000908152600160205260408120610837908363ffffffff6114a116565b61079a83838360405180602001604052806000815250610c27565b6000806108ff60028463ffffffff6114ad16565b509392505050565b600061083a82604051806060016040528060298152602001611e71602991396002919063ffffffff6114c916565b60098054604080516020601f60026000196101006001881615020190951694909404938401819004810282018101909252828152606093909290918301828280156106575780601f1061062c57610100808354040283529160200191610657565b60006001600160a01b0382166109dd5760405162461bcd60e51b815260040180806020018281038252602a815260200180611e47602a913960400191505060405180910390fd5b6001600160a01b038216600090815260016020526040902061083a90611294565b610a06611078565b600a546001600160a01b03908116911614610a68576040805162461bcd60e51b815260206004820181905260248201527f4f776e61626c653a2063616c6c6572206973206e6f7420746865206f776e6572604482015290519081900360640190fd5b600a546040516000916001600160a01b0316907f8be0079c531659141344cd1fd0a4f28419497f9722a3daafe3b4186f6b6457e0908390a3600a80546001600160a01b0319169055565b600a546001600160a01b031690565b60078054604080516020601f60026000196101006001881615020190951694909404938401819004810282018101909252828152606093909290918301828280156106575780601f1061062c57610100808354040283529160200191610657565b610b2a611078565b6001600160a01b0316826001600160a01b03161415610b90576040805162461bcd60e51b815260206004820152601960248201527f4552433732313a20617070726f766520746f2063616c6c657200000000000000604482015290519081900360640190fd5b8060056000610b9d611078565b6001600160a01b03908116825260208083019390935260409182016000908120918716808252919093529120805460ff191692151592909217909155610be1611078565b60408051841515815290516001600160a01b0392909216917f17307eab39ab6107e8899845ad3d59bd9653f200f220920489ca2b5937696c319181900360200190a35050565b610c38610c32611078565b8361129f565b610c735760405162461bcd60e51b8152600401808060200182810382526031815260200180611f8d6031913960400191505060405180910390fd5b610c7f848484846114e0565b50505050565b6060610c9082611065565b610ccb5760405162461bcd60e51b815260040180806020018281038252602f815260200180611f3d602f913960400191505060405180910390fd5b60008281526008602090815260409182902080548351601f6002600019610100600186161502019093169290920491820184900484028101840190945280845260609392830182828015610d605780601f10610d3557610100808354040283529160200191610d60565b820191906000526020600020905b815481529060010190602001808311610d4357829003601f168201915b505060095493945050505060026000196101006001841615020190911604610d895790506105c6565b805115610e5a576009816040516020018083805460018160011615610100020316600290048015610df15780601f10610dcf576101008083540402835291820191610df1565b820191906000526020600020905b815481529060010190602001808311610ddd575b5050825160208401908083835b60208310610e1d5780518252601f199092019160209182019101610dfe565b6001836020036101000a038019825116818451168082178552505050505050905001925050506040516020818303038152906040529150506105c6565b6009610e6584611532565b6040516020018083805460018160011615610100020316600290048015610ec35780601f10610ea1576101008083540402835291820191610ec3565b820191906000526020600020905b815481529060010190602001808311610eaf575b5050825160208401908083835b60208310610eef5780518252601f199092019160209182019101610ed0565b6001836020036101000a03801982511681845116808217855250505050505090500192505050604051602081830303815290604052915050919050565b6001600160a01b03918216600090815260056020908152604080832093909416825291909152205460ff1690565b610f62611078565b600a546001600160a01b03908116911614610fc4576040805162461bcd60e51b815260206004820181905260248201527f4f776e61626c653a2063616c6c6572206973206e6f7420746865206f776e6572604482015290519081900360640190fd5b6001600160a01b0381166110095760405162461bcd60e51b8152600401808060200182810382526026815260200180611d996026913960400191505060405180910390fd5b600a546040516001600160a01b038084169216907f8be0079c531659141344cd1fd0a4f28419497f9722a3daafe3b4186f6b6457e090600090a3600a80546001600160a01b0319166001600160a01b0392909216919091179055565b600061083a60028363ffffffff61160d16565b3390565b600081815260046020526040902080546001600160a01b0319166001600160a01b03841690811790915581906110b182610907565b6001600160a01b03167f8c5be1e5ebec7d5bd14f71427d1e84f3dd0314c0f7b2291e5b200ac8c7c3b92560405160405180910390a45050565b80546001019055565b5490565b6001600160a01b038216611152576040805162461bcd60e51b815260206004820181905260248201527f4552433732313a206d696e7420746f20746865207a65726f2061646472657373604482015290519081900360640190fd5b61115b81611065565b156111ad576040805162461bcd60e51b815260206004820152601c60248201527f4552433732313a20746f6b656e20616c7265616479206d696e74656400000000604482015290519081900360640190fd5b6111b96000838361079a565b6001600160a01b03821660009081526001602052604090206111e1908263ffffffff61161916565b506111f46002828463ffffffff61162516565b5060405181906001600160a01b038416906000907fddf252ad1be2c89b69c2b068fc378daa952ba7f163c4a11628f55a4df523b3ef908290a45050565b61123a82611065565b6112755760405162461bcd60e51b815260040180806020018281038252602c815260200180611ee8602c913960400191505060405180910390fd5b6000828152600860209081526040909120825161079a92840190611cac565b600061083a826110f3565b60006112aa82611065565b6112e55760405162461bcd60e51b815260040180806020018281038252602c815260200180611de3602c913960400191505060405180910390fd5b60006112f083610907565b9050806001600160a01b0316846001600160a01b0316148061132b5750836001600160a01b031661132084610662565b6001600160a01b0316145b8061133b575061133b8185610f2c565b949350505050565b826001600160a01b031661135682610907565b6001600160a01b03161461139b5760405162461bcd60e51b8152600401808060200182810382526029815260200180611f146029913960400191505060405180910390fd5b6001600160a01b0382166113e05760405162461bcd60e51b8152600401808060200182810382526024815260200180611dbf6024913960400191505060405180910390fd5b6113eb83838361079a565b6113f660008261107c565b6001600160a01b038316600090815260016020526040902061141e908263ffffffff61163b16565b506001600160a01b0382166000908152600160205260409020611447908263ffffffff61161916565b5061145a6002828463ffffffff61162516565b5080826001600160a01b0316846001600160a01b03167fddf252ad1be2c89b69c2b068fc378daa952ba7f163c4a11628f55a4df523b3ef60405160405180910390a4505050565b60006108378383611647565b60008080806114bc86866116ab565b9097909650945050505050565b60006114d6848484611726565b90505b9392505050565b6114eb848484611343565b6114f7848484846117f0565b610c7f5760405162461bcd60e51b8152600401808060200182810382526032815260200180611d676032913960400191505060405180910390fd5b60608161155757506040805180820190915260018152600360fc1b60208201526105c6565b8160005b811561156f57600101600a8204915061155b565b60608167ffffffffffffffff8111801561158857600080fd5b506040519080825280601f01601f1916602001820160405280156115b3576020820181803683370190505b50859350905060001982015b831561160457600a840660300160f81b828280600190039350815181106115e257fe5b60200101906001600160f81b031916908160001a905350600a840493506115bf565b50949350505050565b60006108378383611970565b60006108378383611988565b60006114d684846001600160a01b0385166119d2565b60006108378383611a69565b815460009082106116895760405162461bcd60e51b8152600401808060200182810382526022815260200180611d456022913960400191505060405180910390fd5b82600001828154811061169857fe5b9060005260206000200154905092915050565b8154600090819083106116ef5760405162461bcd60e51b8152600401808060200182810382526022815260200180611e9a6022913960400191505060405180910390fd5b600084600001848154811061170057fe5b906000526020600020906002020190508060000154816001015492509250509250929050565b600082815260018401602052604081205482816117c15760405162461bcd60e51b81526004018080602001828103825283818151815260200191508051906020019080838360005b8381101561178657818101518382015260200161176e565b50505050905090810190601f1680156117b35780820380516001836020036101000a031916815260200191505b509250505060405180910390fd5b508460000160018203815481106117d457fe5b9060005260206000209060020201600101549150509392505050565b6000611804846001600160a01b0316611b2f565b6118105750600161133b565b6060611936630a85bd0160e11b611825611078565b88878760405160240180856001600160a01b03166001600160a01b03168152602001846001600160a01b03166001600160a01b0316815260200183815260200180602001828103825283818151815260200191508051906020019080838360005b8381101561189e578181015183820152602001611886565b50505050905090810190601f1680156118cb5780820380516001836020036101000a031916815260200191505b5095505050505050604051602081830303815290604052906001600160e01b0319166020820180516001600160e01b038381831617835250505050604051806060016040528060328152602001611d67603291396001600160a01b038816919063ffffffff611b3516565b9050600081806020019051602081101561194f57600080fd5b50516001600160e01b031916630a85bd0160e11b1492505050949350505050565b60009081526001919091016020526040902054151590565b60006119948383611970565b6119ca5750815460018181018455600084815260208082209093018490558454848252828601909352604090209190915561083a565b50600061083a565b600082815260018401602052604081205480611a375750506040805180820182528381526020808201848152865460018181018955600089815284812095516002909302909501918255915190820155865486845281880190925292909120556114d9565b82856000016001830381548110611a4a57fe5b90600052602060002090600202016001018190555060009150506114d9565b60008181526001830160205260408120548015611b255783546000198083019190810190600090879083908110611a9c57fe5b9060005260206000200154905080876000018481548110611ab957fe5b600091825260208083209091019290925582815260018981019092526040902090840190558654879080611ae957fe5b6001900381819060005260206000200160009055905586600101600087815260200190815260200160002060009055600194505050505061083a565b600091505061083a565b3b151590565b60606114d684846000856060611b4a85611b2f565b611b9b576040805162461bcd60e51b815260206004820152601d60248201527f416464726573733a2063616c6c20746f206e6f6e2d636f6e7472616374000000604482015290519081900360640190fd5b60006060866001600160a01b031685876040518082805190602001908083835b60208310611bda5780518252601f199092019160209182019101611bbb565b6001836020036101000a03801982511681845116808217855250505050505090500191505060006040518083038185875af1925050503d8060008114611c3c576040519150601f19603f3d011682016040523d82523d6000602084013e611c41565b606091505b50915091508115611c5557915061133b9050565b805115611c655780518082602001fd5b60405162461bcd60e51b815260206004820181815286516024840152865187939192839260440191908501908083836000831561178657818101518382015260200161176e565b828054600181600116156101000203166002900490600052602060002090601f016020900481019282601f10611ced57805160ff1916838001178555611d1a565b82800160010185558215611d1a579182015b82811115611d1a578251825591602001919060010190611cff565b50611d26929150611d2a565b5090565b61065f91905b80821115611d265760008155600101611d3056fe456e756d657261626c655365743a20696e646578206f7574206f6620626f756e64734552433732313a207472616e7366657220746f206e6f6e20455243373231526563656976657220696d706c656d656e7465724f776e61626c653a206e6577206f776e657220697320746865207a65726f20616464726573734552433732313a207472616e7366657220746f20746865207a65726f20616464726573734552433732313a206f70657261746f7220717565727920666f72206e6f6e6578697374656e7420746f6b656e4552433732313a20617070726f76652063616c6c6572206973206e6f74206f776e6572206e6f7220617070726f76656420666f7220616c6c4552433732313a2062616c616e636520717565727920666f7220746865207a65726f20616464726573734552433732313a206f776e657220717565727920666f72206e6f6e6578697374656e7420746f6b656e456e756d657261626c654d61703a20696e646578206f7574206f6620626f756e64734552433732313a20617070726f76656420717565727920666f72206e6f6e6578697374656e7420746f6b656e4552433732314d657461646174613a2055524920736574206f66206e6f6e6578697374656e7420746f6b656e4552433732313a207472616e73666572206f6620746f6b656e2074686174206973206e6f74206f776e4552433732314d657461646174613a2055524920717565727920666f72206e6f6e6578697374656e7420746f6b656e4552433732313a20617070726f76616c20746f2063757272656e74206f776e65724552433732313a207472616e736665722063616c6c6572206973206e6f74206f776e6572206e6f7220617070726f766564a26469706673582212208aacc9bbf17d2b9421b99ca85554dc9c13de9f85983d6ec273ee34883d08344e64736f6c63430006070033",
  "linkReferences": {},
  "deployedLinkReferences": {}
}